:020000040800F2
:10000000304A0020990100086B1200082D110008E9
:1000100069120008310200085315000800000000B2
:1000200000000000000000000000000001010008C6
:100030003302000800000000450100086D120008AE
:10004000B3010008B3010008B3010008B3010008C0
:10005000B3010008B3010008B3010008B3010008B0
:10006000B3010008B301000835020008B30100081D
:10007000B3010008B3010008B3010008B301000890
:10008000B3010008B3010008B3010008B301000880
:10009000B3010008B3010008B3010008B301000870
:1000A000B3010008B3010008B3010008B301000860
:1000B000B3010008E1120008ED120008B3010008C6
:1000C000B3010008B3010008B3010008B301000840
:1000D000B3010008B3010008B3010008B301000830
:1000E000B3010008B3010008B3010008DFF80CD029
:1000F00000F08CF800480047D1180008304A002072
:10010000224B19680868B0E8F00F80F30988BFF344
:100110006F8F4FF0000080F311884EF00D0E704786
:100120000000000006480068006880F3088862B696
:1001300061B6BFF34F8FBFF36F8F00DF00BF00BF0B
:1001400008ED00E0EFF30980BFF36F8F0F4B1A68E3
:1001500020E9F00F106008B54FF0500080F31188CF
:10016000BFF34F8FBFF36F8F01F038FF4FF00000E8
:1001700080F31188BDE8084019680868B0E8F00FFE
:1001800080F30988BFF36F8F704700BF180000200D
:10019000EFF3058070470000064880470648004797
:1001A000FEE7FEE7FEE7FEE7FEE7FEE7FEE7FEE727
:1001B000FEE7FEE7DF120008ED000008D2B201E022
:1001C00000F8012B491EFBD270470022F6E710B55C
:1001D00013460A4604461946FFF7F0FF204610BDB5
:1001E00030B50B46014600202022012409E021FA07
:1001F00002F59D4205D303FA02F5491B04FA02F504
:100200002844151EA2F10102F1DC30BD064C074D59
:1002100006E0E06840F0010394E8070098471034D6
:10022000AC42F6D3FFF766FFC0230008E0230008C6
:10023000FEE77047102000F01BB872B6FEE7000022
:1002400010B510280CD11021064800F00DF9064910
:1002500000B101200870BDE81040044800F0DCBC8B
:1002600010BD000000080140780000208C00002034
:10027000044910B50A68024202D00860FFF7E0FFA7
:1002800010BD0000140401402DE9F84FDFF8B891CB
:100290000024A9F1040B23460F2709F1040AABF14E
:1002A000040EC9E00125A5402A40AA427DD1674E2F
:1002B000D1F804C0ACEB0608B44532D014DCBCF174
:1002C000030F3AD009DCBCF1000F2AD0BCF1010FBA
:1002D0001CD0BCF1020F31D11DE0BCF1110F17D0C1
:1002E000BCF1120F2AD119E0B8F5881F19D006DC2D
:1002F000B8F5803F15D0B8F5801F1FD111E0B8F5D3
:10030000001F0ED0B8F5041F18D10AE0CB6815E025
:10031000CB681B1D12E0CB6808330FE0CB680C33B1
:100320000CE08B682BB1012B4FF0080303D0456123
:1003300004E0042302E0056100E00023FF2A01D865
:10034000064601E000F104064FEA840501D9A5F153
:100350002005D6F8008007FA05FC28EA0C0803FA05
:1003600005F548EA0508C6F800804D68ED0062D53D
:10037000374DAE6946F00106AE61AD6924F0030663
:1003800005F001050095334D06EB050CDCF808502F
:10039000A607360F07FA06F825EA0805DFF8B88041
:1003A000404503D14FF0000817E044E0DFF8AC808F
:1003B000404502D14FF001080FE0DFF8A48040452E
:1003C00002D14FF0020808E0DFF89880404502D1E2
:1003D0004FF0030801E04FF0040808FA06F848EA75
:1003E0000508CCF808804D68D9F80060ED024D464C
:1003F00001D5164300E096432E604D68DAF80060A0
:10040000AD02554601D5164300E096432E604D6877
:10041000DBF80060AD035D4601D5164300E096436E
:100420002E604D68DEF80060ED03754601D5164379
:1004300000E096432E60641C0D682A46E5407FF478
:1004400031AFBDE8F88F0000080401400000111032
:10045000001002400000014000080140000C014073
:1004600000100140001401408068084000D00120C5
:100470007047C26821EA02030A4043EA024101616F
:1004800070470AB1016170470904FBE701488068C1
:10049000704700000800002002488168027811447B
:1004A0008160704708000020074810B5016841F0DE
:1004B00010010160032000F08FF8012000F006F821
:1004C00000F03EF8002010BD0020024000B50146BB
:1004D00087B000221E2000F05FF81E2000F04EF8CA
:1004E0001348C16941F00401C161C06905A900F068
:1004F00004000690684600F017F900F035F90D4940
:100500004000B0FBF1F10D480B4A491E026041600A
:1005100040F2E7320021C0E90321816000F030FBA6
:1005200010B1012007B000BD044800F075FBF9E7E9
:100530000010024040420F00000800401C01002053
:100540000C4808B5816941F001018161816901F0C0
:1005500001010091C16941F08051C161C06900F0A1
:10056000805000900448416821F0E06141F0007142
:10057000416008BD0010024000000140002809DB76
:1005800000F01F02012191404009800000F1E020AD
:10059000C0F8001170470000F0B40E4B1B680C4609
:1005A000C3F30223C3F10705042D00D90425191D47
:1005B000072901D2002300E0DB1E012606FA05F11F
:1005C000491E214099409E40761E16403143F0BCA2
:1005D00000F0D0BF0CED00E0064900F0070208680B
:1005E0004FF6FF03184040EA0220034A1043086018
:1005F000704700000CED00E00000FA052DE9F0471F
:100600000F46050061D0434E306800F00700B84245
:1006100009D2306820F0070038433060306800F0BD
:100620000700B84251D128683B4C810712D54007DA
:1006300003D5606840F4E06060602878000703D567
:10064000606840F4605060606068A96820F0F00065
:10065000084360602878C00728D06868012810D057
:100660002168022810D0890700292EDA616821F05C
:10067000030101436160FFF709FF804641F28839B9
:100680000DE021688903EFE78901EDE7FFF7FEFE42
:10069000A0EB0801494502D90320BDE8F087606856
:1006A000696800F00C00B0EB810FEFD1306800F00A
:1006B0000700B8420BD9306820F00700384330609B
:1006C000306800F00700B84201D00120E5E7287843
:1006D000400705D56068E96820F4E0600843606081
:1006E0002878000706D56068296920F4605040EA40
:1006F000C100606000F058F86168084AC1F3031156
:10070000515CC8400649086006480068FFF7DEFEF5
:100710000020C2E70020024000100240A62300088B
:10072000140000200C0000200F2202600C4A5368C5
:1007300003F003034360536803F0F00383605368DE
:1007400003F4E063C36052684FF4E06303EAD2024B
:1007500002610448006800F007000860704700006C
:100760000010024000200240044805490068496822
:10077000044AC1F30221515CC840704714000020B4
:1007800000100240B6230008044805490068496883
:10079000044AC1F3C221515CC840704714000020D4
:1007A00000100240B62300080E4A51680E4801F0BE
:1007B0000C03042B11D0082B0FD10C48C1F3834339
:1007C000C903C05C0AD55168084AC1F34041921E72
:1007D000515C054A5043B0FBF1F07047044948436F
:1007E000704700000010024000127A0096230008B3
:1007F00000093D002DE9F84F040070D02078C04D6D
:10080000C00749D06868C0F38100012807D0686834
:10081000C0F38100022809D16868C00306D52868A2
:10082000800339D560680028E7D035E06068B0F50E
:10083000803F0BD010B1B0F5A02F11D0286820F464
:1008400080302860286820F4802002E0286840F486
:1008500080302860606890B1FFF718FE06460AE015
:10086000286840F480202860F0E700BFFFF70EFE04
:10087000801B642873D828688003F7D50CE0FFF745
:1008800005FE064605E000BFFFF700FE801B64285A
:10089000F0D828688003F7D420789A4E80074FF06C
:1008A00001094FF0000839D5686810F00C0F07D027
:1008B0006868C0F38100022809D16868C00306D4C3
:1008C0002868800714D52069012808D110E0206924
:1008D000B0B1C6F80090FFF7D9FD074605E00AE180
:1008E000FFF7D4FDC01B0228C4D828688007F7D5BD
:1008F0002868616920F0F80040EAC10028600DE036
:10090000C6F80080FFF7C2FD074604E0FFF7BEFD12
:10091000C01B022823D828688007F7D42078000756
:100920002CD57948A169D9B1C0F80090FFF7AEFD88
:10093000074604E0FFF7AAFDC01B02280FD8686A2B
:100940008007F7D571484FF4FA510068B0FBF1F019
:10095000009000BF0098411E0091FAD20EE080E0A6
:10096000C0F80080FFF792FD074604E0FFF78EFD18
:10097000C01B022875D8686A8007F7D42078400722
:1009800060D5E8690027C00008D4E86940F08050CD
:10099000E861E869012700F0805000905C48016838
:1009A000C90513D40168834641F480710160FFF7E3
:1009B0006DFD824606E000BFFFF768FDA0EB0A0070
:1009C00064284ED8DBF80000C005F5D5E0680128A2
:1009D0000AD008B1052813D0286A20F00100286247
:1009E000286A20F0040002E0286A40F00100286232
:1009F000E06841F2883B98B1FFF748FD82460BE082
:100A0000286A40F004002862EEE700BFFFF73EFDD1
:100A1000A0EB0A0159455AD8286A8007F6D50CE0A0
:100A2000FFF734FD824605E0FFF730FDA0EB0A0139
:100A300059454CD8286A8007F6D41FB1E86920F0E0
:100A40008050E861E06988B36968C1F381010229D7
:100A500044D00228C6F8608004D0FFF717FD044692
:100A600038E034E0FFF712FD074604E0FFF70EFD23
:100A7000C01B02282BD828688001F7D4206AB0F563
:100A8000803F05D16868A16820F4003008436860A1
:100A9000D4E908010843696821F4741108436860C7
:100AA000C6F86090FFF7F2FC044606E025E000BFC0
:100AB000FFF7ECFC001B022809D828688001F7D555
:100AC0001BE000BFFFF7E2FC001B022802D9032055
:100AD000BDE8F88F28688001F4D40EE00128F7D033
:100AE0006868226A00F48031914204D1616A00F49E
:100AF0007010884201D00120EAE70020E8E70000FA
:100B000000100240000042428004424214000020D3
:100B1000007000407047704770B590F83C20012A83
:100B200026D0012480F83C40022280F83D20036852
:100B30005A689D6822F070060A6832435A600D4B6D
:100B400002689A4208D0B2F1804F05D00A4B9A420F
:100B500002D00A4B9A4204D1496825F08003194318
:100B6000916080F83D40002180F83C10084670BD3F
:100B7000022070BD002C014000040040000800402D
:100B800010B5040003D094F83D0010B107E0012037
:100B900010BD002084F83C00204600F01FF8022021
:100BA00084F83D00211D206800F0A6FB012084F898
:100BB000460084F83E0084F83F0084F8400084F842
:100BC000410084F8420084F8430084F8440084F82B
:100BD000450084F83D00002010BD000008B5006805
:100BE0000B49884212D10B48C16941F00201C16131
:100BF000C069002200F00200009011461D20FFF79E
:100C0000CBFCBDE808401D20FFF7B8BC08BD0000C4
:100C1000000400400010024090F83D10012901D06E
:100C200001207047022180F83D100168CA6842F037
:100C30000102CA6000680B49884208D0B0F1804FB9
:100C400005D00949884202D00849884204D1816808
:100C500001F00701062903D0016841F0010101609C
:100C600000207047002C01400004004000080040B4
:100C70000168CA6822F00102CA6001680A6A41F28A
:100C800011131A4207D10A6A9B101A4203D10A684B
:100C900022F001020A60012180F83D100020704717
:100CA00070B5044690F83C000025012817D00126B5
:100CB00084F83C60022084F83D002068826822F0BD
:100CC000770222F47F4282600868502838D00DDC19
:100CD00020284FD005DC90B3102811D14AE0022023
:100CE00070BD302846D040280AD13BE060282FD084
:100CF00070280DD0B0F5805F03D0B0F5005F12D042
:100D0000012584F83D60002084F83C00284670BD31
:100D1000CB68D1E90121206800F02AFB20688168B6
:100D200041F0770109E0CB68D1E90121206800F0AA
:100D30001FFB2068816841F480418160E1E719E090
:100D4000CA684968206800F025FB5021206806E049
:100D5000CA684968206800F02EFB6021206800F016
:100D600011FBCEE7CA684968206800F013FB4021F8
:100D70002068F4E7226801461046F0E770472DE945
:100D8000F04104460068C66805694FF00007A907EE
:100D900013D5B10711D5F91E016101202077206814
:100DA00080698007204602D0FFF7E8FF04E000F0EA
:100DB0007EF8204600F07CF82777680716D5700784
:100DC00014D521686FF004000861022020772068A4
:100DD000806910F4407F204602D0FFF7CFFF04E087
:100DE00000F065F8204600F063F82777280715D54E
:100DF000300713D521686FF00800086104202077C0
:100E00002068C0698007204602D0FFF7B7FF04E0E2
:100E100000F04DF8204600F04BF82777E80616D58D
:100E2000F00614D521686FF01000086108202077C3
:100E30002068C06910F4407F204602D0FFF79EFF73
:100E400004E000F034F8204600F032F82777E80795
:100E500008D0F00706D021686FF001000861204635
:100E600000F028F8280608D5300606D521686FF06E
:100E7000800008612046FFF74DFE680608D5700621
:100E800006D521686FF040000861204600F092F816
:100E9000A8060AD5B00608D521686FF020000861C1
:100EA0002046BDE8F041FFF736BEBDE8F08170474F
:100EB0007047000070B5044600682949884201D196
:100EC000FFF7EAFA274884422ED1274C27A0217841
:100ED00000F040FB2078284E032813D11021304623
:100EE000FFF7C2FA254D08B92878F0B12078032819
:100EF00008D110213046FFF7B7FA012802D128782F
:100F0000012812D020781E4D032805D91021304623
:100F1000FFF7AAFA01280CD02078152801D3012068
:100F200028702078401C207070BDFFF7AFFA606019
:100F3000F7E7FFF7ABFA06466068311A11A000F038
:100F400009FB6068301A0026FA2802DD02202870AA
:100F500000E02E700348FFF78BFE2670E1E70000EB
:100F6000000800408C00002000000020636F756EB8
:100F700074203D2025640A0000080140780000200C
:100F80007900002054494D332D494E544552525555
:100F9000505420202D2D3E206B65795F656E6420B6
:100FA0002D206B65795F7374617274203D20256418
:100FB0000D0A0000704770B5040004D094F8410099
:100FC000002510B106E0012070BD84F84050204695
:100FD00000F024F8242084F841002068C16821F43E
:100FE0000051C160204600F01FFA2068016921F419
:100FF000904101612068416921F02A014161206826
:10100000C16841F40051C1606564202084F841004A
:1010100084F842006563002070BD000030B585B0E3
:1010200000240094019402940394006814498842B7
:1010300024D11448816941F480418161816901F4BE
:1010400080410491816941F00401816180690E4D04
:1010500000F0040004904FF4007000900220019012
:101060000320039069462846FFF70EF92815CDE9BD
:101070000004694628460294FFF706F905B030BD22
:101080000038014000100240000801402DE9F843FB
:10109000044690F84100984616460D46202802D096
:1010A0000220BDE8F88385B17EB100206064212074
:1010B00084F84100FFF7EAF9A6848146E684A06837
:1010C0002027B0F5805F02D003E00120E9E7206926
:1010D00010B12E4600250EE000260CE080212046AF
:1010E00000F0FEF9A8B9C6B116F8010B21684860F6
:1010F000E08C401EE084E08C4B464FF00002CDF8BF
:1011000000800028EAD14FF04001204600F0E8F9C5
:1011100040B184F841700320C3E735F8020BC0F3F7
:101120000800E3E784F841700020BAE7FEE700001A
:1011300030B585B0002000900190029003901E48C9
:10114000816941F020018161816901F020010491F0
:10115000816941F004018161816901F00401049118
:10116000816941F0080181618069144D00F0080037
:101170000122049011462846FFF783F910200090C1
:101180000F480124CDE9010469460E48FFF77CF8B9
:101190000220CDE902400094694601942846FFF7F9
:1011A00073F8002204210A20FFF7F6F90A20FFF75E
:1011B000E5F905B030BD000000100240000C014010
:1011C000000031100008014010B586B00024174817
:1011D00000940194029403940494134905940160CB
:1011E00041F61F41C0E901146321C0E903148021C5
:1011F0008161FFF7C5FC08B1FFF71FF84FF480507D
:10120000009069460948FFF74BFD08B1FFF715F854
:10121000049404A905480594FFF77EFC002801D03A
:10122000FFF70BF806B010BD000400408C00002052
:101230000C4810B50A4901604FF4E13141600021CA
:1012400081600C22C160C0E904128161C161FFF7B5
:10125000B2FE002803D0BDE81040FEF7EEBF10BD7F
:1012600000380140D4000020FEE7FEE710B500F092
:101270005FFF012803D0BDE8104000F0E9BE10BDBB
:1012800030B58FB028216846FEF79FFF14210AA8C9
:10129000FEF79BFF01210804CDE900100024029411
:1012A00002250491CDE907504FF4E01009906846FB
:1012B000FFF7A0FA08B172B6FEE70F20CDE90A05E4
:1012C0004FF48060CDE90C4002210AA80E94FFF78C
:1012D00095F9002801D072B6FEE70FB030BD704717
:1012E0000148FFF74CBD00008C0000200148FFF7CB
:1012F00046BD00001C010020F0B50268194B1A4CD5
:101300001A4D4FF08047984205D0B84203D0A04212
:1013100001D0A84203D122F070064A6832439842B5
:1013200005D0B84203D0A04201D0A84203D122F494
:101330004074CA6822434C6922F080022243026052
:101340008A68C2620A688262984201D109690163AF
:10135000012141610169C90703D0016921F001013F
:101360000161F0BD002C0140000400400008004075
:1013700010B5846842EA032224F47F440A432243DE
:10138000826010BD826822F070020A4342F00701B9
:101390008160704710B5036A046A24F00104046296
:1013A000846924F0F00444EA021423F00A020A4398
:1013B0008461026210BD10B5036A046A24F010044F
:1013C0000462846923F0A00324F4704444EA0232E6
:1013D00043EA01118261016210BD01680C3151E8DC
:1013E000002F22F4907241E80023002BF5D1016810
:1013F000143151E8002F22F0010241E80023002BB4
:10140000F5D1016B012909D101680C3151E8002F98
:1014100022F0100241E80023002BF5D1202180F8B2
:10142000421000210163704770B5044600680169ED
:10143000E26821F44051114301612169A068084329
:10144000616908432168CA6841F20C639A43024308
:10145000CA6020684169A26921F440711143416169
:101460001E492068884202D1FFF78EF901E0FFF79C
:101470007BF900EBC00101EB001260686421800081
:10148000B2FBF0F3B3FBF1F36FF018067343B2FB5A
:10149000F0F5B2FBF0F605EB8305322303EB0515FF
:1014A000B5FBF1F5B6FBF1F605F0F00505EB061519
:1014B000B2FBF0F6B2FBF0F0B0FBF1F06FF0180207
:1014C000504306EB800003EB0010B0FBF1F0216805
:1014D00000F00F002844886070BD00000038014013
:1014E0002DE9F843984617460D460446089E24E029
:1014F000701C22D0FEF7CAFFA0EB0800B0421AD839
:10150000CEB12068C168490717D5802D15D0402D70
:1015100013D00168C94309070FD40168002540684A
:1015200000902046FFF759FF0820606484F840507F
:101530000120BDE8F8830320FBE72068006835EA56
:10154000000004D00020B842D2D00020F1E70120F2
:10155000F9E7FEE70FB4054B10B503A9044A02985A
:1015600000F028F810BC5DF814FB00000917000813
:10157000880000200907090E002804DB00F1E020A4
:1015800080F80014704700F00F0000F1E02080F8B0
:10159000141D704702E008C8121F08C1002AFAD1C2
:1015A00070477047002001E001C1121F002AFBD1E3
:1015B000704700002DE9FF4F89B09B460446002587
:1015C00006E025280BD05A460B999047641C6D1CE9
:1015D00020780028F5D10DB02846BDE8F08F00270F
:1015E000B8460122474900E0074314F8013F203B79
:1015F00002FA03F00842F7D120782E2819D114F806
:10160000010F47F004072A280ED06FF02F02207830
:10161000A0F1300109290CD808EB880102EB410147
:1016200000EB0108641CF2E70A98641C50F8048B74
:101630000A9020780028CED0642808D0692806D0E7
:1016400075281ED05A460B9990476D1C58E00A9990
:101650004FF00A0901C90A91002802DA40422D21FF
:1016600002E0390504D52B218DF82010012103E07B
:10167000F90704D02021F7E78A4608AE0DE00021E3
:10168000FAE70A994FF00A0901C90A91F7E74946B2
:10169000FEF7A6FD303106F8011D0028F7D1ADEBAD
:1016A000060000F12009780701D44FF00108C84571
:1016B00002DDA8EB090000E000208046002706E0DC
:1016C00008A85A46C05D0B9990476D1C7F1C574572
:1016D000F6DB04E030205A460B9990476D1CB8F1B8
:1016E0000001A8F10108F5DC05E016F8010B5A46E7
:1016F0000B9990476D1CB9F10001A9F10109F4DCC7
:10170000641C65E70928010013B5FF23012269461F
:101710000248FFF7BBFC00981CBD0000D40000206D
:101720001CB50D490120CDE90001002380220BA149
:101730000D4800F0A3FC10B90CA0FFF70BFF00F060
:101740001DFC00F0F5FC022804D0BDE81C4011A0EF
:10175000FFF700BF1CBD00007C00002073746172A5
:10176000745F7461736B0000DD1C00087461736B3F
:10177000202273746172745F7461736B22206372D0
:101780006561746564206465666561742021200D5F
:101790000A0000005363686564756C6572206E6FA3
:1017A000742072756E6E696E67210D0A000000006C
:1017B0000149022048707047780000200A4C4FF41D
:1017C000FA75217821B1012904D0022904D006E05C
:1017D00006A002E00AA000E00DA0FFF7BBFE28462D
:1017E00000F066FBEDE70000790000206B65795F93
:1017F0006D6F64655F73686F72740D0A000000009E
:101800006B65795F6D6F64655F6C6F6E670D0A0065
:101810006B65795F6D6F64655F6C6F6E675F726536
:101820006C656173650D0A0001210148FEF721BE58
:10183000000C014001480078704700007A00002049
:1018400010B500F007F802490020087010BD000034
:101850007A000020012211460148FEF712BE000066
:10186000000C0140002201210148FEF70ABE0000E1
:10187000000C014008B54FF4167400BF00F066FC80
:101880000090FFF7D7FF30B1012807D0022808D019
:10189000032818D112E0FFF7DDFF14E0FFF7E2FFA5
:1018A00011E0FFF7C1FFC82000F002FBFFF7BCFF0B
:1018B000C82000F0FDFAFFF7B7FF04E0FFF7B4FF20
:1018C000204600F0F5FA2146684600F005FCD5E711
:1018D000FEF7EAFDFFF7D4FCFFF72AFCFFF7A8FCB0
:1018E000FFF772FC00F052FA02A0FFF733FEFFF799
:1018F00017FFFEE76672656572746F735F737461DC
:1019000072742E2E2E2E0A002DE9F0411E4C0F4629
:101910000546E6682068001D00F03FFA38B92068E7
:1019200090F82C1001208840216981432161681CB6
:1019300015D1A7B11549226848689060236882686C
:10194000DA6022688368121D5A602268121D826064
:10195000206841610868401C0860BDE8F08120688B
:101960003544B5424560216805D2E06BBDE8F041E1
:10197000091D00F033BAA06B091D00F02FFAA06A10
:101980008542EAD2A562E8E718000020180200208C
:101990002DE9F041054600F045FA364CA068401CA0
:1019A000A0602068344F10B1606940B32DE025601D
:1019B000A068012829D1002606EB860007EB8000ED
:1019C00000F0FEF9761C052EF6D32B48643000F0AB
:1019D000F7F92948783000F0F3F927488C3000F007
:1019E000EFF92548A03000F0EBF92348B43000F0BF
:1019F000E7F921486430A0631430E06305E0206813
:101A0000E96AC06A884200D82560606A0121401CEA
:101A10006062E86A226981401143216100EB800025
:101A200007EB80004068A8608168E9608268291D32
:101A300051608160E86A00EB800007EB800169611A
:101A400057F82010491C47F8201000F0F9F9606998
:101A500000280CD02068E96AC06A884207D207498A
:101A60004FF080500860BFF34F8FBFF36F8FBDE81A
:101A7000F0810000180000206401002004ED00E067
:101A800010B50446006B00F0E5F92046BDE81040B3
:101A900000F0E0B90E484FF48841420706D0C01D5F
:101AA0000B4920F00700411AC1F58841094A00237B
:101AB0000144C2E900030839143A21F0070111601A
:101AC0004B600B600B1AC0E90013936053607047C2
:101AD0002C02002070000020144E154CA6F1A00727
:101AE0004FF08058DFF84C9012E000BF00F09AF9F8
:101AF000F068C568281D00F050F9A068401EA0607D
:101B00006068401E606000F09BF92846FFF7B8FF50
:101B100060680028EAD138680128F9D9C9F800803E
:101B2000BFF34F8FBFF36F8FF2E700000402002076
:101B30001800002004ED00E02DE9F0479946DDE9AA
:101B4000096480466FF00303206B03EB8202089D5B
:101B5000104420F0070761B1002023180A5C83F8C5
:101B600034200A5C12B1401C1028F6D3002084F8FF
:101B70004300052D00D30425201DE56200F02BF95C
:101B800004F1180000F027F92461C5F10500646232
:101B9000A0614A464146384600F08EF82060002E8B
:101BA00000D03460BDE8F08730B5114900E011463F
:101BB0000A688242FBD34B685C18844203D14068B8
:101BC00018444860084643681C18944209D1084CE0
:101BD000143C2468A24209D052681A4442600A6840
:101BE00012680260814200D0086030BD0460F9E7ED
:101BF000700000200548816B096821B1816BC968BC
:101C00000968816270474FF0FF31FAE71800002041
:101C1000502080F31188BFF34F8FBFF36F8FFEE723
:101C200070B50446002600F0D1F9224D286808B9A5
:101C3000FFF730FFCCB304F00700C0F11000C14340
:101C40008C4232D8211800292FDD686881422CD8B7
:101C5000184814300246146801E0204614466268B1
:101C60008A4202D22268002AF7D12A6894421CD004
:101C700006682268026060680836421A102A04D991
:101C8000601842606160FFF78FFF61686868401A02
:101C90006860AA68904200D2A86041F0004060608D
:101CA00000202060E868401CE86000F0E7FA304659
:101CB00070BD00005C00002010B5031F4FF0807461
:101CC0001C601B1F21F001011960191F024B0B60E2
:101CD000143940380A6010BD111C00081CB500F012
:101CE000A1F811480224CDE90040002380220FA171
:101CF000104800F0C3F910B90FA0FFF72BFC0A48F9
:101D00000023001DCDE90040802214A1154800F0F9
:101D1000B5F910B914A0FFF71DFC002000F0E0F8A1
:101D2000BDE81C4000F08CB8800000206C65646346
:101D3000746C0000751800087461736B20226C6568
:101D40006463746C222063726561746564206465E9
:101D5000666561742021200D0A0000006B657963BF
:101D6000746C0000BD1700087461736B20226B65F2
:101D70007963746C222063726561746564206465A4
:101D8000666561742021200D0A00000010B5FFF780
:101D900057FDBDE81040FFF70BBDD0E901320169E6
:101DA0009A60D0E901235A604A68824201D1826870
:101DB0004A60002202610868401E08600868704797
:101DC00000F108014FF0FF32C0E90112C16001616A
:101DD00000210160704700210161704730B50B6838
:101DE0005A1C02D000F1080202E0026904E0224617
:101DF000546825689D42FAD953684B6099608A609F
:101E0000516008610168491C016030BD42684A6048
:101E100093688B6093685960916008610168491C00
:101E200001607047502080F31188BFF34F8FBFF3DC
:101E30006F8F02480168491C0160704758000020FC
:101E400003490868401E086001D180F3118870477B
:101E50005800002070B500281BD0A0F1080460686D
:101E6000002816DA2168002913D120F000406060B4
:101E700000F0ACF8074D6068696808446860204667
:101E8000FFF792FE2869401C2861BDE8704000F011
:101E9000F5B970BD5C0000204FF0E0200021016129
:101EA0008161024941610721016170473F190100C9
:101EB00010B5020009D000F089F800211046FFF7A4
:101EC00023FD00F0DBF9002807D104494FF08050D2
:101ED0000860BFF34F8FBFF36F8F10BD04ED00E0BC
:101EE00070B50546FFF79EFF214C05B92568281DF2
:101EF000FFF753FF58B9E86A1E4A00EB800152F819
:101F0000211021B901218140206988432061A86AFC
:101F100018B105F11800FFF740FF606A401C6062CD
:101F20002068854208D11348291DA030FFF76EFFB5
:101F30006068401C606004E0A068401EA060FFF77D
:101F400059FEFFF77DFF2068854202D02846FFF743
:101F500097FD606900280AD02068854207D10649AC
:101F60004FF080500860BFF34F8FBFF36F8F70BD8D
:101F7000180000206401002004ED00E07CB50F484B
:101F80000025CDE900502B4680220DA10E4800F01F
:101F900075F80A4C2C3C01280ED1502080F3118892
:101FA000BFF34F8FBFF36F8F4FF0FF30A062012060
:101FB0006061E56000F034F8206B7CBD44000020D7
:101FC00049444C4500000000D91A00080248416B02
:101FD000491C416370470000180000200E48416B07
:101FE00011B10121C16170470021C16101690B4A32
:101FF000B1FA81F1C1F11F0101EB810102EB810115
:1020000001F108034A6852684A609A4201D1526855
:102010004A60D16801607047180000206401002008
:10202000094810B5016841F470010160016841F090
:1020300070410160FFF730FF044900200860FEF79F
:1020400071F8002010BD000020ED00E058000020D5
:1020500010B5502080F31188BFF34F8FBFF36F8FFF
:1020600000F07AF818B104494FF080500860002061
:1020700080F3118810BD000004ED00E02DE9FF5F42
:102080008346DDE90E87994616468A469000FFF79B
:10209000C7FD05001DD04C20FFF7C2FD040015D080
:1020A0004C21FEF792F825630021CDE90241CDE9EC
:1020B00000874B46324651465846FFF73DFD2046C5
:1020C000FFF766FC012004B0BDE8F09F2846FFF74B
:1020D000C1FE4FF0FF30F6E770B50E46054600240E
:1020E000FFF774FF1048C2682B689919934204D90E
:1020F0008B420BD9914202D808E08B42FAD9881A58
:10210000296001240021FFF7FFFB00E0296000F0B7
:10211000B5F838B905494FF080500860BFF34F8FCC
:10212000BFF36F8F204670BD1800002004ED00E063
:102130000548416919B1406B18B100207047012072
:102140007047022070470000180000200148C06856
:1021500070470000180000202DE9F041454C002692
:10216000606B28B1A069401CA0613046BDE8F081D9
:10217000E5686D1CE56008D1A06BE16BA163E063CD
:10218000206A401C2062FFF735FDA16A3A488D4263
:102190000FD34FF0000EA16B096839B1A16BC9686C
:1021A000C9684A68954212D2A26202E04FF0FF313C
:1021B000A1622168C96A01EB810150F82100012860
:1021C00000D90126E0690028CFD00126CDE7D1E96A
:1021D00002724B69BA60D1E902277A605F680A1D12
:1021E000974201D1CF685F60C1F814E01F687F1E7D
:1021F0001F60D1F828C0BCF1000F15D0D1E9073716
:102200009F60D1E907377B60DCF8047001F11803A7
:102210009F4202D10B6ACCF80430C1F828E0DCF808
:1022200000305B1ECCF80030CB6A0127D4F810C018
:102230009F4047EA0C07276103EB830300EB83030E
:102240005B688B609F68CF609F687A609A60CA6A9B
:1022500002EB820200EB82034B6150F822305B1CE0
:1022600040F82230C96A2268D26A914293D9012685
:1022700091E7000018000020640100202DE9F041E2
:1022800000242746FFF7CEFD3F4D686B401E686374
:10229000686B002872D1A8683C4B00264FF00108FB
:1022A000F0BB6BE0D868C468D4E90721A06A9160EC
:1022B000D4E907125160426804F118018A4201D141
:1022C000216A4160A6620168491E0160D4E90221C9
:1022D00060699160D4E9021251604268211D8A420E
:1022E00001D1E268426066610268521E0260E26AE1
:1022F000D5F810C008FA02F040EA0C00286102EBA1
:102300008200224A8C3A02EB80004068A060D0F83C
:1023100008C0C4F80CC0D0F808C0CCF8041000E025
:1023200012E08160E06A00EB800002EB80016161F5
:1023300052F82010491C42F82010E06A2968C96A46
:10234000884201D3C5F81C8018680028AAD10CB1B6
:10235000FFF750FCAC693CB1FFF7FEFE08B1C5F8D1
:102360001C80641EF8D1AE61E86938B108490127C4
:1023700038070860BFF34F8FBFF36F8FFFF760FD23
:102380003846BDE8F081000018000020F001002070
:1023900004ED00E0010202030405060708090A0B28
:1023A0000C0D0E0F101000000000000000000102D4
:1023B00003040607080900000000010203040000EE
:1023C000E0230008000000208C00000094150008A5
:1023D0006C2400088C000020A4490000A41500080B
:1023E00000000000000000000100000010000000DC
:1023F0000000000000127A00000000000000000051
:1024000000000000000000000000000000000000CC
:1024100000000000000000000000000000000000BC
:1024200000000000000000000400000000000000A8
:102430000000000000000000AAAAAAAA00000000F4
:10244000000000000000000000000000000000008C
:10245000000000000000000000000000000000007C
:0C24600000000000000000000000000070
:04000005080000ED02
:00000001FF
