:020000040800F2
:10000000C04A002099010008FF2600083125000899
:10001000FD260008090B0008032A00080000000064
:1000200000000000000000000000000001010008C6
:10003000430B0008000000004501000801270008EC
:10004000B3010008B3010008B3010008B3010008C0
:10005000B3010008B3010008B3010008B3010008B0
:10006000B3010008B3010008450B00080D0B0008A0
:10007000B3010008B3010008B3010008B301000890
:10008000B3010008B3010008B9090008B301000872
:10009000B3010008B3010008B3010008B301000870
:1000A000B3010008B3010008B3010008B301000860
:1000B000B3010008912700089D270008B30100083C
:1000C000B3010008B3010008B3010008B301000840
:1000D000B3010008B3010008B3010008B301000830
:1000E000B3010008B3010008B3010008DFF80CD029
:1000F00000F050FC00480047013A0008C04A0020C8
:10010000224B19680868B0E8F00F80F30988BFF344
:100110006F8F4FF0000080F311884EF00D0E704786
:100120000000000006480068006880F3088862B696
:1001300061B6BFF34F8FBFF36F8F00DF00BF00BF0B
:1001400008ED00E0EFF30980BFF36F8F0F4B1A68E3
:1001500020E9F00F106008B54FF0500080F31188CF
:10016000BFF34F8FBFF36F8F03F0F8FF4FF0000026
:1001700080F31188BDE8084019680868B0E8F00FFE
:1001800080F30988BFF36F8F704700BF180000200D
:10019000EFF3058070470000064880470648004797
:1001A000FEE7FEE7FEE7FEE7FEE7FEE7FEE7FEE727
:1001B000FEE7FEE78D270008ED000008202A04DB9B
:1001C000203A21FA02F00021704721FA02F3D040D0
:1001D000C2F120029140084319467047D2B201E0B3
:1001E00000F8012B491EFBD270470022F6E710B53C
:1001F00013460A4604461946FFF7F0FF204610BD95
:10020000F0B480EA0102D40F4200B2EB410F02D2F7
:100210000246084611464A0042D0C30DDDB2C1F382
:10022000C752AD1A202D35DAC1F3160141F4000290
:1002300004B15242C5F1200602FA06F12A411044E7
:10024000B3EBD05F23D0C4B1012DA0EBC35009DCC8
:10025000F0BC4FF0004202EAC352DBB200F50000EE
:1002600000F09DBA400000F1807000EBC350A0F197
:10027000807040EAD170490009E0490841EAC07144
:10028000A0EBC35000F50000400800EBC350F0BCE9
:1002900000F07CBA6142012202EB4101001BF6E74B
:1002A000F0BC704781F00041AAE780F00040A7E76A
:1002B00030B480EA010202F0004530F0004221F043
:1002C000004013D090B1C30DD40DC2F31601C0F39A
:1002D0001600E41A41F4000140F400027D3491421A
:1002E00001D3641C00E04900002C02DA30BC00207D
:1002F00070474FF400000023914201D3891A034351
:1003000040084FEA4101F7D151B1914202D14FF07B
:10031000004105E002D24FF0010101E06FF0010160
:1003200003EBC450284430BC00F030BA420005D082
:10033000C0F3C7525242914201DC0020704700EBEB
:10034000C15070472DE9FE4F804681EA0300C00F7F
:100350000C46009021F0004123F00045B8EB02006C
:10036000A94105D24046214690461C460B4602460E
:1003700023F00040104347D0270DC7F30A00C3F312
:100380000A510290401A019040286BDAC3F313001F
:1003900040F4801B0098924620B10023D2EB030A60
:1003A00063EB0B0B01985946C0F14002504600F038
:1003B000CCF906460D4650465946019A00F0D4F94C
:1003C00010EB08006141002487EA115284EAE773C8
:1003D0001A4340D0009A62B3019A012A4FEA0752A9
:1003E00015DC001B61EB02014FF0004202EA0752EC
:1003F000CDE90042001C41F5801132462B4600F049
:100400000BFA03B0BDE8F08F40462146F9E7001B28
:1004100061EB0201001C41F5801300185B412018BC
:10042000A2F5001747EB030140EAD570B6196D41FC
:1004300011E06D084FEA360645EAC0754FEA0752EB
:10044000001B61EB0201001C41F5801149084FEAD5
:1004500030000019514132462B4603B0BDE8F04F41
:1004600000F0CBB90098012240000023D0EB02023B
:1004700063EBE073009821464FEAE074B8EB0000AC
:1004800061EB0401E9E783F000435BE781F00041A1
:1004900058E72DE9FE4F81EA030404F0004421F0FF
:1004A000004100944FF0000B23F0004350EA010498
:1004B0005ED052EA03045BD0C3F30A54C1F30A5579
:1004C0002C44A4F2F3340194A0FB0254C1F31301B1
:1004D00041F48011C3F3130343F4801301FB02447E
:1004E00000FB034E840A970A44EA815447EA835783
:1004F000A4FB076802958D0A05FB07854FEA932C3C
:1005000004FB0C542705029D4FEA065847EA1637AC
:10051000B5EB08056EEB070C870E920E47EA8117C4
:1005200042EA8312A7FB0201B6EB0B0164EB000465
:100530002B0D43EA0C335E1844EB1C50DA4651464F
:10054000E7FB0201C5F313044FEA0B3343EA1453EC
:100550004FEA0432019C43EA0603A4F10C0402941E
:10056000009CCDE900B400F057F903B0BDE8F08F6E
:1005700000200146F9E72DE9F04D81EA030404F07B
:10058000004B21F0004514464FF0000A23F00041D3
:1005900050EA050220D054EA01021DD0C5F30A57E3
:1005A0000246C5F31303C1F31300C1F30A5640F426
:1005B000801543F48013A7EB0608101BD64608F2FB
:1005C000FD3873EB050002D308F1010801E0921831
:1005D0005B41B8F1000F03DA00200146BDE8F08D61
:1005E00000204FF48011064684460EE0171B73EB83
:1005F000050705D3121B63EB050306434CEA010C08
:1006000049084FEA300092185B4150EA0107EDD1EA
:1006100052EA030012D082EA040083EA050108438B
:1006200005D0101BAB4106D20122002306E00022B8
:100630004FF0004302E06FF0010253101AEB060086
:100640004CEB085110EB0A0041EB0B01BDE8F04DFB
:1006500000F0D3B896230022114600F0A0B800F0B5
:10066000004230F000400AD0C10D01F56071C0F3C6
:10067000160042EA0151C2084007114370470020AA
:100680000146704701F0004330B421F0004150EAC8
:10069000010206D00A0DA2F56072C1F31301002A0F
:1006A00002DC30BC00207047440F44EAC104C100A2
:1006B000E01830BC00EBC25000F068B830B50B4613
:1006C000014600202022012409E021FA02F59D4282
:1006D00005D303FA02F5491B04FA02F52844151E56
:1006E000A2F10102F1DC30BD2DE9F05F05460020EA
:1006F00092469B4688460646814640241BE0284693
:10070000414647462246FFF759FD53465A46C01A0E
:10071000914110D311461846224600F016F82D1AC2
:1007200067EB01084F4622460120002100F00DF83A
:1007300017EB00094E41201EA4F10104DFDC4846FE
:1007400031462A464346BDE8F09F202A04DB203A82
:1007500000FA02F1002070479140C2F1200320FA14
:1007600003F3194390407047202A06DBCB17203A49
:1007700041FA02F043EAE07306E041FA02F3D040A6
:10078000C2F1200291400843194670470029A8BFD2
:100790007047401C490008BF20F00100704710B4AA
:1007A000B0FA80FC00FA0CF050EA010404BF10BC5F
:1007B000704749B1CCF1200421FA04F411FA0CF18C
:1007C00018BF012121430843A3EB0C01CB1D4FEAC5
:1007D00000614FEA102042BF002010BC704700EBC0
:1007E000C35010440029A4BF10BC7047401C4900EE
:1007F00008BF20F0010010BC704710B5141E73F143
:10080000000408DA401C41F1000192185B411A43D0
:1008100001D120F0010010BD2DE9F04D92469B461C
:1008200011B1B1FA81F202E0B0FA80F220329046C2
:10083000FFF78BFF04460F4640EA0A0041EA0B012E
:1008400053465A46084313D0114653EA010019D0C3
:10085000C8F140025046FFF7B1FC05460E4650462F
:1008600059464246FFF771FF084305D0012004E0D6
:1008700020463946BDE8F08D0020054346EAE07683
:100880002C4337430A986305E40AA0EB08000022D2
:10089000FD0A44EA47540A3002D500200146E9E740
:1008A000010510196941DDE9084500196941BDE8F4
:1008B000F04DA2E770B521F0004303430CD0C1F323
:1008C0000A550024D5EB040564EB0403D617AD1AD2
:1008D000B34102DB0020014670BD201841EB0251FC
:1008E00070BD0EB5C10F80EAE0700844CA07002150
:1008F00040F233438DE80E000A460B46FFF78CFFAB
:1009000003B000BDC1F30A52C1F3130140F2FF333B
:1009100041F480119A4202DA00200146704740F209
:1009200033439A42A2F2334202DC5242FFF746BC02
:10093000FFF70BBF30B5041E71F1000404DB4FF06C
:100940000044404264EB0101141E73F1000405DB16
:100950001C464FF00043524263EB04038B4208BF36
:10096000824230BD30B5041E71F1000404DB4FF04B
:100970000044404264EB0101141E73F1000405DBE6
:100980001C464FF00043524263EB0403994208BFF8
:10099000904230BD064C074D06E0E06840F0010390
:1009A00094E8070098471034AC42F6D3FFF7A2FB57
:1009B00090450008B0450008014800F04BBA00001F
:1009C000A800002070B5044600688168C943C907C3
:1009D00017D1816821F00101816000F091FE054688
:1009E0000AE000BF00F08CFE401B022804D92068FA
:1009F0008068C043C00706D020688068C043C00735
:100A0000F0D0002070BDA06A40F01000A062E06A43
:100A100040F00100E062012070BD10B50146406A5F
:100A2000826A12F0500F05D0006A026BBDE81040D8
:100A300008461047816A41F4007181620168896843
:100A4000C1F3424107290CD1017B51B9816A21F4DC
:100A500080718162816AC90403D4816A41F0010115
:100A6000816200F061F910BD10B5406A816A41F001
:100A700040018162C16A41F00401C16200F0E9F9FC
:100A800010BD10B5406A00F0E3F910BDF8B50026BE
:100A90000446009600688168C943C9072DD0816863
:100AA00041F001018160164816490068B0FBF1F081
:100AB00000E0401E00900028FBD100F021FE05461A
:100AC00016E000BF00F01CFE401B022810D9206871
:100AD0008068C043C0070BD0A06A40F01000A0623D
:100AE000E06A40F00100E06284F824600120F8BD73
:100AF00020688068C043C007E4D10020F8BD000032
:100B00001400002040420F00FEE70000014800F002
:100B1000C1BB0000D800002030B590F8405001243F
:100B2000AC40C56B6C60046863604368102B03685D
:100B300003D099600068C26030BD9A600068C160EF
:100B400030BD7047102000F0CDBC72B6FEE700004B
:100B5000F8B500250446009590F8240001280BD034
:100B6000012084F824002046FFF72CFF2046FFF7E1
:100B70008DFF060002D050E00220F8BDA06A20F4EC
:100B8000885040F00200A062022000F071FE25496A
:100B90000968B1FBF0F0400000E0401E0090002822
:100BA000FBD12068816841F00801816000F0A8FD58
:100BB000074608E000F0A4FDC01B0A2803D92068FE
:100BC0008068000715D4206880680007F2D4206888
:100BD000816841F00401816000F092FD074612E057
:100BE00000F08EFDC01B0A280DD9206880684007E0
:100BF00009D5A06A20F0020040F01000A06284F83D
:100C000024500120F8BD206880684007E8D4A06A1D
:100C100020F0020040F00100A06284F82450304629
:100C2000F8BD00001400002070470000F8B5002453
:100C3000009490F824202546012A12D0012280F841
:100C400024204A681F23072A0DD20668776B521E9C
:100C500002EB820293409F430B6893401F437763EC
:100C600019E00220F8BD06680D2A0AD2376BD21FA0
:100C700002EB820293409F430B6893401F4337630C
:100C800009E0F76A0D3A02EB820293409F430B683A
:100C900093401F43F7620A68072306680A2A0AD3AB
:100CA000F7680A3A02EB420293409F438B689340F5
:100CB0001F43F76008E0376902EB420293409F430D
:100CC0008B6893401F4337610A68102A01D0112AAC
:100CD00020D1124B02689A4217D193681B0219D493
:100CE000936843F4000393600968102912D10C49FA
:100CF0000C4A0968B1FBF2F101EB8101490000E007
:100D0000491E00910029FBD104E0816A41F02001D5
:100D10008162012480F824502046F8BD002401405F
:100D20001400002040420F002DE9F05F3F4800F022
:100D300063FADFF8FC8008F1040598F8001005F16B
:100D40000804491CC9B288F800100A2914D06BD2D3
:100D5000288880B2FFF77EFC2168FFF751FA2060F7
:100D6000A88880B2FFF776FC6168FFF749FA6060F7
:100D7000BDE8F05F02F092BB2868FFF76BFC2168CA
:100D8000FFF73EFA2B4E3146FFF792FA6FF00B0752
:100D90003946FFF7CBFAFFF762FCDFF89CA04FF073
:100DA00066394A465346FFF774FB4A46234BFFF722
:100DB0006AFB234A234BFFF7DEFB0022224BFFF79F
:100DC00068FBFFF75FFC20606868FFF743FC616821
:100DD000FFF716FA3146FFF76BFA3946FFF7A6FA26
:100DE000FFF73DFC4A465346FFF753FB8B4605464B
:100DF0004A465346FFF74AFB06460F4628465946E1
:100E00000022124BFFF745FB32463B46FFF7B3FB90
:100E1000FFF738FC606002F051FB0021606088F849
:100E20000010012188F80110BDE8F09FA800002003
:100E30008C0000200000204166660A406666FA3F8A
:100E4000D0CCCCCCCCCCDC3F000059400088C34097
:100E50007047704770B50446006806684568A90683
:100E600025D5B10723D5A16AC90603D4A16A41F4E7
:100E70000071A1628168C1F34241072910D1217B31
:100E800071B9416821F020014160A06A20F48070AE
:100E9000A062A06AC00403D4A06A40F00100A0626E
:100EA0002046FFF741FF21686FF012000860280616
:100EB0002ED570072CD5A06AC00603D4A06A40F4D2
:100EC0000050A06220688168C1F30231072909D06F
:100ED0004168490515D48168C1F34241072910D101
:100EE000217B71B9416821F080014160A06A20F442
:100EF0008050A062A06AC00503D4A06A40F001003F
:100F0000A0622046FFF790FE21686FF00C00086099
:100F100068060CD5F0070AD0A06A40F48030A062C1
:100F2000204600F093F821686FF00100086070BD62
:100F30002DE9F0414FF0000704003D467ED0A06A45
:100F4000002628B9E66284F82460204600F080F884
:100F50002046FFF737FDA16AC90600D420B1A06A78
:100F600040F01000A06269E0A16A21F4885141F0CC
:100F70000201A1626268E169237B0A4347EA4301F7
:100F80000A43A1684FF48077B94209D0012907D0FC
:100F90005FF0000194F814C0BCF1010F02D00AE028
:100FA0003946F7E7F3B1A36A43F02003A362E36A8B
:100FB00043F00103E3622368D3F804C02CF4694CC6
:100FC0004CEA010CC3F804C021688B68DFF870C0DC
:100FD00003EA0C0313438B60A168B9420BD00129CB
:100FE00009D00CE0DFF85CC0A3690CEB43330B4382
:100FF00043F40061DFE7218A0D05A5F5801521681E
:10100000CB6A23F470032B43CB62216889680E4BB3
:101010001940914208D1E662A16A21F0020141F033
:101020000101A162BDE8F081A06A20F0020040F059
:101030001000A062E06A40F00100E0620120F1E7E8
:10104000FDF7E1FF00E0FFFFFE0E1FFF704700000D
:1010500070B586B00025064600950195029503956A
:1010600000681D49884235D11C49886940F40070E8
:101070008861886900F400700490886940F0040079
:1010800088618869694600F004000490032000909C
:101090000190134800F032FA134C1248C4E90005DD
:1010A0008020C4E90250800020618000606120201F
:1010B000C4E90605204600F097F908B1FFF745FDA1
:1010C000346200220A211220666200F09FFB122087
:1010D00000F08EFB06B070BD0024014000100240FD
:1010E0000008014008000240D80000202DE9F04728
:1010F000894604463B4900683B4F0E1D9046884296
:1011000001D0B84207D1306810F4702F03D0012508
:101110002846BDE8F08794F8240001280CD001206F
:1011200084F824002046FFF7B1FC05004FF00000D2
:1011300004D084F82400EBE70220EAE7A16A40F635
:101140000162914341F48071A1622168B94218D1D2
:10115000326812F4702F14D0A16A41F48011A16298
:101160003168490505D5A16A21F4005141F4805147
:10117000A162A16AC9040AD5E16A21F00601E1620F
:1011800006E0A26A22F48012A2624968E9E7E062FE
:1011900084F82400216A15488862216A1448C862CC
:1011A000216A1448086321686FF002000860206813
:1011B000816841F480718160216843464A464C3120
:1011C000206A00F03FF920688168C1F34241072995
:1011D000816803D041F48011816099E741F4A00156
:1011E000FAE7000000240140002801401B0A000823
:1011F000830A0008690A000810B5044690F8240024
:10120000012807D0012084F824002046FFF7DAFBEC
:1012100010B113E0022010BD21688A6822F48072A8
:101220008A60216A91F82120022A07D1084600F03D
:101230000EF8A16A30B141F04001A162002184F8AA
:10124000241010BD21F4885141F00101F5E710B5DB
:1012500090F821100022022905D00421816380F832
:101260002020012010BD01680B6823F00E030B60E5
:1012700001680B6823F001030B6090F84030C46BE9
:10128000012101FA03F3636080F8211080F8202027
:10129000104610BD2DE9F05FC16B0C6801680B684A
:1012A000D0F840C0042202FA0CF2494DDFF824A124
:1012B000494E4A4FDFF828B1DFF828E122422CD00E
:1012C0005A072AD50A68920603D40A6822F0040253
:1012D0000A600168A94201D1042219E0514501D1F7
:1012E000402215E0B14202D14FF4806210E0B942D1
:1012F00002D14FF480420BE0594502D14FF48022D5
:1013000006E0714502D14FF4800201E04FF08062A7
:101310002F4908394A60C16A3BE04FF0020808FAD9
:101320000CF818EA040F4FF000094FF0010235D015
:101330005FEA837832D50B689B0605D40B6823F0EF
:101340000A030B6080F821200168A94201D1022222
:1013500019E0514501D1202215E0B14202D14FF4EC
:10136000007210E0B94202D14FF400520BE059452F
:1013700002D14FF4003206E0714502D14FF4001261
:1013800001E04FF00072124908394A6080F820905D
:10139000816A00291AD0BDE8F05F0847082505FAE0
:1013A0000CF5254212D01B0710D50B6823F00E0355
:1013B0000B6090F84010C36B02FA01F15960826330
:1013C00080F8212080F82090016BE2E7BDE8F09FD3
:1013D000080002401C00024030000240440002406D
:1013E000580002406C00024030B528B308C81349C9
:1013F00014221944B1FBF2F18900C16310498163E1
:10140000022141771A6843F6F0718A43D0E900144B
:101410002143D0E902452C43214304692143446917
:101420002143846921431143196000214163012252
:1014300042770177084630BD012030BDF8FFFDBF7F
:101440000000024070B5044690F8200000250128F5
:101450000CD0012084F8200094F821600020012E97
:1014600006D084F820000225284670BD022070BDF9
:10147000022684F82160A0632068066826F0010631
:1014800006602046FFF748FBE06A002820680168F4
:1014900002D041F00E0106E021F004010160206855
:1014A000016841F00A0101602068016841F0010112
:1014B0000160D9E710B510280CD11021064800F0C2
:1014C0000DF9064900B101200870BDE8104004483C
:1014D00000F0A4BD10BD000000080140780000200D
:1014E0001C010020044910B50A68024202D00860BD
:1014F000FFF7E0FF10BD0000140401402DE9F84F94
:10150000DFF8B8910024A9F1040B23460F2709F155
:10151000040AABF1040EC9E00125A5402A40AA4205
:101520007DD1674ED1F804C0ACEB0608B44532D08B
:1015300014DCBCF1030F3AD009DCBCF1000F2AD057
:10154000BCF1010F1CD0BCF1020F31D11DE0BCF188
:10155000110F17D0BCF1120F2AD119E0B8F5881F6E
:1015600019D006DCB8F5803F15D0B8F5801F1FD123
:1015700011E0B8F5001F0ED0B8F5041F18D10AE02D
:10158000CB6815E0CB681B1D12E0CB6808330FE079
:10159000CB680C330CE08B682BB1012B4FF00803A8
:1015A00003D0456104E0042302E0056100E000236C
:1015B000FF2A01D8064601E000F104064FEA84053F
:1015C00001D9A5F12005D6F8008007FA05FC28EA24
:1015D0000C0803FA05F548EA0508C6F800804D68CE
:1015E000ED0062D5374DAE6946F00106AE61AD69DA
:1015F00024F0030605F001050095334D06EB050CBC
:10160000DCF80850A607360F07FA06F825EA0805A1
:10161000DFF8B880404503D14FF0000817E044E000
:10162000DFF8AC80404502D14FF001080FE0DFF851
:10163000A480404502D14FF0020808E0DFF898800E
:10164000404502D14FF0030801E04FF0040808FACA
:1016500006F848EA0508CCF808804D68D9F800601B
:10166000ED024D4601D5164300E096432E604D68CD
:10167000DAF80060AD02554601D5164300E0964306
:101680002E604D68DBF80060AD035D4601D5164362
:1016900000E096432E604D68DEF80060ED0375466D
:1016A00001D5164300E096432E60641C0D682A465F
:1016B000E5407FF431AFBDE8F88F00000804014039
:1016C000000011100010024000000140000801401D
:1016D000000C0140001001400014014080680840E7
:1016E00000D001207047C26821EA02030A4043EAA1
:1016F0000241016170470AB1016170470904FBE7CB
:101700000148806870470000080000200248816896
:10171000027811448160704708000020074810B526
:10172000016841F010010160032000F08FF80020F3
:1017300000F006F800F03EF8002010BD0020024046
:1017400000B5014687B000221E2000F05FF81E2081
:1017500000F04EF81348C16941F00401C161C0694D
:1017600005A900F004000690684600F0DFF900F0DB
:10177000FDF90D494000B0FBF1F10D480B4A491E3F
:101780000260416040F2E7320021C0E9032181603C
:1017900000F0F8FB10B1012007B000BD044800F0D4
:1017A0003DFCF9E70010024040420F0000080040F5
:1017B000AC0100200C4808B5816941F0010181614C
:1017C000816901F001010091C16941F08051C1615D
:1017D000C06900F0805000900448416821F0E06149
:1017E00041F00071416008BD00100240000001405E
:1017F000002809DB00F01F02012191404009800010
:1018000000F1E020C0F8001170470000F0B40E4B6A
:101810001B680C46C3F30223C3F10705042D00D94E
:101820000425191D072901D2002300E0DB1E012633
:1018300006FA05F1491E214099409E40761E164049
:101840003143F0BC01F0EEB80CED00E0064900F0C9
:10185000070208684FF6FF03184040EA0220034AD7
:1018600010430860704700000CED00E00000FA052E
:1018700010B501460020234C012922D0022939D07D
:1018800010291DD161682268D20119D51E48C1F303
:101890008342C903805C0AD561681B4AC1F3404199
:1018A000921E515C194AB2FBF1F1484301E018491C
:1018B00048436168490203D440000321B0FBF1F0C2
:1018C00010BD226AC2F30121012903D1920701D57B
:1018D000C80310BD022905D1626A920702D549F6F4
:1018E000404010BD0329FCD121688903F9D54FF28E
:1018F000244010BD00F04AF96168C1F38131491CF0
:101900004900DBE7001002402845000800127A0079
:1019100000093D002DE9F84305460078354CC00725
:1019200054D0E0690026C00008D4E06940F080503F
:10193000E061E069012600F0805000902E480168C7
:10194000C90512D40168804641F480710160FFF737
:10195000D7FE074605E000BFFFF7D2FEC01B642894
:1019600023D8D8F80000C005F6D5206A10F44070DE
:1019700021D0A98801F4407181421CD0206A1F49FE
:10198000012220F440700A6000220A602062C00731
:1019900011D0FFF7B5FE074641F2883808E000BFD6
:1019A000FFF7AEFEC11B414502D90320BDE8F88315
:1019B000206A8007F4D5206A696820F440700843E3
:1019C00020621EB1E06920F08050E0612878800735
:1019D00005D56068A96820F4404008436060287815
:1019E000C00605D56068E96820F48000084360609F
:1019F0000020DBE70010024000700040400442423B
:101A00002DE9F0470F46050061D0434E306800F0E5
:101A10000700B84209D2306820F007003843306030
:101A2000306800F00700B84251D128683B4C81076C
:101A300012D5400703D5606840F4E0606060287804
:101A4000000703D5606840F4605060606068A96872
:101A500020F0F000084360602878C00728D068684C
:101A6000012810D02168022810D0890700292EDA19
:101A7000616821F0030101436160FFF741FE804688
:101A800041F288390DE021688903EFE78901EDE72C
:101A9000FFF736FEA0EB0801494502D90320BDE857
:101AA000F0876068696800F00C00B0EB810FEFD13F
:101AB000306800F00700B8420BD9306820F007000A
:101AC00038433060306800F00700B84201D0012090
:101AD000E5E72878400705D56068E96820F4E0600C
:101AE000084360602878000706D56068296920F4FB
:101AF000605040EAC100606000F058F86168084A30
:101B0000C1F30311515CC8400649086006480068EB
:101B1000FFF716FE0020C2E700200240001002403E
:101B200038450008140000200C0000200F2202603D
:101B30000C4A536803F003034360536803F0F00357
:101B40008360536803F4E063C36052684FF4E0635A
:101B500003EAD20202610448006800F0070008604E
:101B60007047000000100240002002400448054970
:101B700000684968044AC1F30221515CC8407047BB
:101B800014000020001002404845000804480549A0
:101B900000684968044AC1F3C221515CC8407047DB
:101BA0001400002000100240484500080E4A516809
:101BB0000E4801F00C03042B11D0082B0FD10C4858
:101BC000C1F38343C903C05C0AD55168084AC1F315
:101BD0004041921E515C054A5043B0FBF1F0704702
:101BE00004494843704700000010024000127A0088
:101BF0001645000800093D002DE9F84F040070D09B
:101C00002078C04DC00749D06868C0F38100012822
:101C100007D06868C0F38100022809D16868C00352
:101C200006D52868800339D560680028E7D035E0FC
:101C30006068B0F5803F0BD010B1B0F5A02F11D087
:101C4000286820F480302860286820F4802002E092
:101C5000286840F480302860606890B1FFF750FD3C
:101C600006460AE0286840F480202860F0E700BFBC
:101C7000FFF746FD801B642873D828688003F7D5DA
:101C80000CE0FFF73DFD064605E000BFFFF738FD1D
:101C9000801B6428F0D828688003F7D420789A4EF7
:101CA00080074FF001094FF0000839D5686810F03F
:101CB0000C0F07D06868C0F38100022809D168685A
:101CC000C00306D42868800714D52069012808D1EC
:101CD00010E02069B0B1C6F80090FFF711FD07468B
:101CE00005E00AE1FFF70CFDC01B0228C4D82868F4
:101CF0008007F7D52868616920F0F80040EAC10044
:101D000028600DE0C6F80080FFF7FAFC074604E003
:101D1000FFF7F6FCC01B022823D828688007F7D4F9
:101D2000207800072CD57948A169D9B1C0F8009076
:101D3000FFF7E6FC074604E0FFF7E2FCC01B0228C1
:101D40000FD8686A8007F7D571484FF4FA510068D8
:101D5000B0FBF1F0009000BF0098411E0091FAD254
:101D60000EE080E0C0F80080FFF7CAFC074604E000
:101D7000FFF7C6FCC01B022875D8686A8007F7D435
:101D80002078400760D5E8690027C00008D4E869DA
:101D900040F08050E861E869012700F08050009031
:101DA0005C480168C90513D40168834641F4807119
:101DB0000160FFF7A5FC824606E000BFFFF7A0FC2C
:101DC000A0EB0A0064284ED8DBF80000C005F5D56A
:101DD000E06801280AD008B1052813D0286A20F04D
:101DE00001002862286A20F0040002E0286A40F01E
:101DF00001002862E06841F2883B98B1FFF780FC5F
:101E000082460BE0286A40F004002862EEE700BF3B
:101E1000FFF776FCA0EB0A0159455AD8286A8007DB
:101E2000F6D50CE0FFF76CFC824605E0FFF768FC96
:101E3000A0EB0A0159454CD8286A8007F6D41FB197
:101E4000E86920F08050E861E06988B36968C1F30F
:101E50008101022944D00228C6F8608004D0FFF72F
:101E60004FFC044638E034E0FFF74AFC074604E044
:101E7000FFF746FCC01B02282BD828688001F7D446
:101E8000206AB0F5803F05D16868A16820F4003071
:101E900008436860D4E908010843696821F47411B3
:101EA00008436860C6F86090FFF72AFC044606E025
:101EB00025E000BFFFF724FC001B022809D8286892
:101EC0008001F7D51BE000BFFFF71AFC001B0228BA
:101ED00002D90320BDE8F88F28688001F4D40EE011
:101EE0000128F7D06868226A00F48031914204D159
:101EF000616A00F47010884201D00120EAE70020F6
:101F0000E8E7000000100240000042428004424224
:101F100014000020007000407047704770B590F8C2
:101F20003C20012A26D0012480F83C40022280F87F
:101F30003D2003685A689D6822F070060A683243A3
:101F40005A600D4B02689A4208D0B2F1804F05D01A
:101F50000A4B9A4202D00A4B9A4204D1496825F0B2
:101F600080031943916080F83D40002180F83C10C7
:101F7000084670BD022070BD002C014000040040E6
:101F80000008004010B5040003D094F83D0010B1E3
:101F900007E0012010BD002084F83C00204600F03E
:101FA0001FF8022084F83D00211D206800F0FCFB92
:101FB000012084F8460084F83E0084F83F0084F84D
:101FC000400084F8410084F8420084F8430084F81B
:101FD000440084F8450084F83D00002010BD000056
:101FE00008B500680B49884212D10B48C16941F01D
:101FF0000201C161C069002200F0020000900321CB
:102000001D20FFF703FCBDE808401D20FFF7F0BBD3
:1020100008BD0000000400400010024090F83D1090
:10202000012901D001207047022180F83D1001688C
:10203000CA6842F00102CA6000680B49884208D0B1
:10204000B0F1804F05D00949884202D00849884242
:1020500004D1816801F00701062903D0016841F02D
:102060000101016000207047002C01400004004085
:10207000000800400168CA6822F00102CA600168D5
:102080000A6A41F211131A4207D10A6A9B101A42D6
:1020900003D10A6822F001020A60012180F83D1094
:1020A0000020704770B5044690F83C0000250128D8
:1020B00017D0012684F83C60022084F83D00206897
:1020C000826822F0770222F47F42826008685028FA
:1020D00038D00DDC20284FD005DC90B3102811D16A
:1020E0004AE0022070BD302846D040280AD13BE0AB
:1020F00060282FD070280DD0B0F5805F03D0B0F5E8
:10210000005F12D0012584F83D60002084F83C0077
:10211000284670BDCB68D1E90121206800F080FB22
:102120002068816841F0770109E0CB68D1E901219D
:10213000206800F075FB2068816841F4804181606F
:10214000E1E719E0CA684968206800F07BFB50218C
:10215000206806E0CA684968206800F084FB6021B6
:10216000206800F067FBCEE7CA684968206800F085
:1021700069FB40212068F4E7226801461046F0E739
:1021800070472DE9F04104460068C66805694FF0C4
:102190000007A90713D5B10711D5F91E0161012068
:1021A0002077206880698007204602D0FFF7E8FF8B
:1021B00004E000F07EF8204600F07CF827776807FE
:1021C00016D5700714D521686FF00400086102204D
:1021D00020772068806910F4407F204602D0FFF706
:1021E000CFFF04E000F065F8204600F063F82777A1
:1021F000280715D5300713D521686FF0080008614E
:10220000042020772068C0698007204602D0FFF7AD
:10221000B7FF04E000F04DF8204600F04BF82777B8
:10222000E80616D5F00614D521686FF01000086195
:10223000082020772068C06910F4407F204602D033
:10224000FFF79EFF04E000F034F8204600F032F87B
:102250002777E80708D0F00706D021686FF0010063
:102260000861204600F028F8280608D5300606D573
:1022700021686FF0800008612046FFF74DFE680678
:1022800008D5700606D521686FF040000861204629
:1022900000F092F8A8060AD5B00608D521686FF0BC
:1022A000200008612046BDE8F041FFF736BEBDE8DA
:1022B000F08170477047000070B5044600682949F6
:1022C000884201D1FFF722FA274884422ED1274CB9
:1022D00027A0217800F096FB2078284E032813D100
:1022E00010213046FFF7FAF9254D08B92878F0B1EA
:1022F0002078032808D110213046FFF7EFF9012894
:1023000002D12878012812D020781E4D032805D943
:1023100010213046FFF7E2F901280CD0207815286B
:1023200001D3012028702078401C207070BDFFF779
:10233000E7F96060F7E7FFF7E3F906466068311AEE
:1023400011A000F05FFB6068301A0026FA2802DD59
:102350000220287000E02E700348FFF78BFE2670E5
:10236000E1E70000000800401C0100200000002000
:10237000636F756E74203D2025640A0000080140DB
:10238000780000207900002054494D332D494E54E7
:1023900045525255505420202D2D3E206B65795FBB
:1023A000656E64202D206B65795F73746172742093
:1023B0003D2025640D0A0000704770B5040004D06C
:1023C00094F84100002510B106E0012070BD84F8AA
:1023D0004050204600F024F8242084F84100206872
:1023E000C16821F40051C160204600F075FA2068F0
:1023F000016921F4904101612068416921F02A01BD
:1024000041612068C16841F40051C16065642020C9
:1024100084F8410084F842006563002070BD00002C
:1024200030B585B0002400940194029403940068B0
:102430001449884224D11448816941F48041816162
:10244000816901F480410491816941F00401816155
:1024500080690E4D00F0040004904FF4007000906D
:10246000022001900320039069462846FFF746F8B2
:102470002815CDE90004694628460294FFF73EF886
:1024800005B030BD00380140001002400008014096
:102490002DE9F843044690F84100984616460D464B
:1024A000202802D00220BDE8F88385B17EB100204B
:1024B0006064212084F84100FFF722F9A684814658
:1024C000E684A0682027B0F5805F02D003E00120F9
:1024D000E9E7206910B12E4600250EE000260CE049
:1024E0008021204600F054FAA8B9C6B116F8010BB5
:1024F00021684860E08C401EE084E08C4B464FF041
:102500000002CDF800800028EAD14FF040012046BB
:1025100000F03EFA40B184F841700320C3E735F87B
:10252000020BC0F30800E3E784F841700020BAE72B
:10253000FEE70000FEB500241648009401941449FB
:1025400002940160891581600125057304750226D6
:1025500006614FF460214460C161FEF7E9FC08B1F7
:10256000FEF7F3FA07200094CDE9015069460948C7
:10257000FEF75CFB08B1FEF7E8FACDE900566946C4
:102580000448FEF753FB002801D0FEF7DEFAFEBD3B
:1025900000240140A8000020094808B5416941F025
:1025A000010141614069002200F0010000900A2110
:1025B0000B20FFF72BF9BDE808400B20FFF718B9F7
:1025C0000010024030B585B00020009001900290CC
:1025D00003901E48816941F020018161816901F009
:1025E00020010491816941F004018161816901F058
:1025F00004010491816941F0080181618069144DF1
:1026000000F008000122049011462846FFF773F8F5
:10261000102000900F480124CDE9010469460E48BE
:10262000FEF76CFF0220CDE9024000946946019458
:102630002846FEF763FF002204210A20FFF7E6F890
:102640000A20FFF7D5F805B030BD000000100240A9
:10265000000C0140000031100008014010B586B0A8
:10266000002417480094019402940394049413499D
:102670000594016041F61F41C0E901146321C0E9DE
:10268000031480218161FFF77DFC08B1FEF75DFA3C
:102690004FF48050009069460948FFF703FD08B1E8
:1026A000FEF753FA049404A905480594FFF736FC95
:1026B000002801D0FEF749FA06B010BD0004004022
:1026C0001C0100200C4810B50A4901604FF4E131AB
:1026D0004160002181600C22C160C0E90412816167
:1026E000C161FFF76AFE002803D0BDE81040FEF785
:1026F0002CBA10BD0038014064010020FEE7FEE75F
:1027000010B501F0D5FD012803D0BDE8104001F05F
:102710005FBD10BD30B593B028216846FDF765FD5B
:1027200014210AA8FDF761FD002501200F951095E1
:102730001195010412958DE8230004904FF4E010E8
:10274000CDE90810022407946846FFF755FA08B14E
:1027500072B6FEE70AA90F2081E831004FF48060CD
:10276000CDE90D0502210AA8FFF74AF908B172B6B2
:10277000FEE74FF4004011900F940FA8FFF7CAF83E
:10278000002801D072B6FEE713B030BD70470000DC
:102790000148FFF7F6BC00001C0100200148FFF7CC
:1027A000F0BC0000AC010020F0B50268194B1A4CD7
:1027B0001A4D4FF08047984205D0B84203D0A0424E
:1027C00001D0A84203D122F070064A6832439842F1
:1027D00005D0B84203D0A04201D0A84203D122F4D0
:1027E0004074CA6822434C6922F08002224302608E
:1027F0008A68C2620A688262984201D109690163EB
:10280000012141610169C90703D0016921F001017A
:102810000161F0BD002C01400004004000080040B0
:1028200010B5846842EA032224F47F440A43224319
:10283000826010BD826822F070020A4342F00701F4
:102840008160704710B5036A046A24F001040462D1
:10285000846924F0F00444EA021423F00A020A43D3
:102860008461026210BD10B5036A046A24F010048A
:102870000462846923F0A00324F4704444EA023221
:1028800043EA01118261016210BD01680C3151E817
:10289000002F22F4907241E80023002BF5D101684B
:1028A000143151E8002F22F0010241E80023002BEF
:1028B000F5D1016B012909D101680C3151E8002FD4
:1028C00022F0100241E80023002BF5D1202180F8EE
:1028D000421000210163704770B504460068016929
:1028E000E26821F44051114301612169A068084365
:1028F000616908432168CA6841F20C639A43024344
:10290000CA6020684169A26921F4407111434161A4
:102910001E492068884202D1FFF738F901E0FFF72D
:1029200025F900EBC00101EB001260686421800012
:10293000B2FBF0F3B3FBF1F36FF018067343B2FB95
:10294000F0F5B2FBF0F605EB8305322303EB05153A
:10295000B5FBF1F5B6FBF1F605F0F00505EB061554
:10296000B2FBF0F6B2FBF0F0B0FBF1F06FF0180242
:10297000504306EB800003EB0010B0FBF1F0216840
:1029800000F00F002844886070BD0000003801404E
:102990002DE9F843984617460D460446089E24E064
:1029A000701C22D0FEF7ACFEA0EB0800B0421AD893
:1029B000CEB12068C168490717D5802D15D0402DAC
:1029C00013D00168C94309070FD401680025406886
:1029D00000902046FFF759FF0820606484F84050BB
:1029E0000120BDE8F8830320FBE72068006835EA92
:1029F000000004D00020B842D2D00020F1E701202E
:102A0000F9E7FEE70FB4054B10B503A9044A029895
:102A100000F056F910BC5DF814FB00001D350008ED
:102A2000A00000200907090E002804DB00F1E020C7
:102A300080F80014704700F00F0000F1E02080F8EB
:102A4000141D70472DE9F0414F1E00EBC7010446ED
:102A5000D1E9000115461E4637F006020DD02A4680
:102A60003346FDF716FD7F1E04EBC703D3E90023B1
:102A7000FDF768FC37F00602F1D1022F25D0042FB4
:102A800013D0062F18BFBDE8F0812A463346FDF764
:102A900000FDD4E90A23FDF755FC2A463346FDF72D
:102AA000F8FCD4E90823FDF74DFC2A463346FDF730
:102AB000F0FCD4E90623FDF745FC2A463346FDF732
:102AC000E8FCD4E90423FDF73DFC2A463346FDF734
:102AD000E0FCD4E90223FDF735FC2A463346FDF736
:102AE000D8FCD4E90023BDE8F041FDF72BBC000081
:102AF0000022134610460149FDF73DBD0000F03F9E
:102B00000122FDF7D7BE0022134610461146FDF7FD
:102B100032BD02E008C8121F08C1002AFAD170476E
:102B20007047002001E001C1121F002AFBD170474D
:102B30000149086070470000A40000202DE9FF5FF4
:102B400082B00021DDE90430020DDDF840B003431E
:102B500018D044F61050A2F2FF32424315141198D7
:102B600001281FD0A5EB0B00401C5FEA000A4FF0C4
:102B700000064E4FDFF83891B046504615D5CAF1E1
:102B8000000413E0119801244AA3012801D16FEA3F
:102B90000B010298119AC0E90031C0E9024206B067
:102BA000BDE8F09FCBF10000DFE704460021404A7A
:102BB000491842EB0450CDE9001012E0E00707D0BD
:102BC00032463B4640464946FDF763FC804689460F
:102BD00032463B4610461946FDF75BFC06460F465B
:102BE0006410002CEAD1DDE90401DDE90023BAF12B
:102BF000000F06DAFDF74DFC42464B46FDF749FC57
:102C000005E0FDF7B8FC42464B46FDF7B4FC044630
:102C10000E460022284BFDF7A5FE03D84FF0FF30EB
:102C2000014607E00022254B20463146FDF78AFB8E
:102C3000FDF768FE102409E0002C0ADB0A220023BD
:102C4000FDF752FD039B30321A55641E50EA010213
:102C5000F2D1641C039AC4F111031444119A012A9D
:102C600003D0012208430DD10AE0084304D000201C
:102C70004FF0110B119072E7A3EB0B056D1E0DE0E9
:102C80005B4504DD4FF0000205F1010504E003DAC5
:102C90004FF00002A5F10105002AECD0029811992D
:102CA000C0E90231C0E9004579E7000000001440A6
:102CB0000000F03F300000000000F0430000E03F63
:102CC0002DE9FF4F95B09B468946064600250FE249
:102CD000252877D100242746F84A0121059400E0F1
:102CE000044316F8013F203B01FA03F01042F7D1EC
:102CF00030782A2811D06FF02F033078A0F13002FD
:102D0000092A16D8059A44F0020402EB820203EB6A
:102D100042021044761C0590EFE759F8042B059207
:102D2000002A03DA504244F40054059044F00204AF
:102D3000761C30782E2816D116F8010F44F00404C2
:102D40002A280DD06FF02F023078A0F13003092B24
:102D500009D807EB870302EB4303C718761CF3E798
:102D600059F8047B761C30786C280FD006DC4C2890
:102D700017D068280DD06A2814D104E0742810D028
:102D80007A280FD10DE044F400140AE044F48014D2
:102D900001E044F440147278824202D104F58014B8
:102DA000761C761C307866280BD013DC582877D038
:102DB00009DC002875D04528F6D04628F4D04728ED
:102DC0001AD19DE118E0632835D0642879D06528B0
:102DD00012D195E1702873D008DC6728F1D06928FA
:102DE0006FD06E280DD06F2806D1B5E073282CD097
:102DF000752875D0782874D05A46179990476D1C5D
:102E000075E1C4F30250022809D003280DD0D9F887
:102E1000001004280DD00D6009F1040967E1D9F80C
:102E20000010EA17C1E90052F6E7D9F800100D804A
:102E3000F2E70D70F0E719F8041B8DF80010002080
:102E40008DF80100EA46012003E059F804AB4FF089
:102E5000FF3061074FF0000102D40DE008F10101DD
:102E60008846B9420FDA8045F8DB1AF808100029C5
:102E7000F4D108E008F1010188468142FADB1AF832
:102E800008100029F6D105985B46A0EB08072146FB
:102E90003846179A00F094FA284400EB080507E03A
:102EA0004DE029E10DE01AF8010B5A4617999047B9
:102EB000B8F10108F7D25B4621463846179A13E16C
:102EC00042E00A220092C4F302524FF0000A022AA2
:102ED00008D059F804CB032A4FEAEC710AD00DE070
:102EE00029E02AE009F1070121F00702F2E802C116
:102EF000914609E00FFA8CFC4FEAEC71042A03D1E9
:102F00004FFA8CFC4FEAEC71002907DA0A460021DF
:102F1000DCF1000C61EB02012D2202E0220504D558
:102F20002B228DF80420012203E0E20701D02022A9
:102F3000F7E7904659E00A2102E010220DE0102147
:102F40004FF0000A00910BE010224FF0000A44F00D
:102F500004040827009203E008224FF0000A0092C0
:102F6000C4F30252022A05D059F804CB0021032AE7
:102F700008D009E009F1070121F00702F2E802C1D7
:102F8000914605E01FFA8CFC042A01D10CF0FF0CDD
:102F90004FF00008220728D5702806D0009B83F048
:102FA000100353EA0A0305D00EE040228DF80420F6
:102FB000012208E05CEA010206D030228DF80420EC
:102FC0008DF8050002229046009B83F0080353EA27
:102FD0000A030AD15CEA010201D1620705D5302259
:102FE0008DF804204FF001087F1E582804D034A02B
:102FF00003900EA802900DE036A0F9E75346604614
:10300000009AFDF771FB84460398825C0298401E8B
:10301000029002705CEA0100F0D1029806A9081A39
:1030200000F1200A600702D524F4803400E0012773
:10303000574502DDA7EB0A0000E0002000EB0A0183
:10304000009005984144401A0590E00306D45B4681
:103050002146179A059800F0B3F90544002706E0C9
:1030600001A85A46C05D179990476D1C7F1C4745C3
:10307000F6DBE0030CD55B462146179A059800F075
:103080009FF9054404E030205A46179990476D1C7B
:103090000099481E00900029F5DC08E0029802998A
:1030A0005A460078491C0291179990476D1CBAF155
:1030B0000001AAF1010AF1DC65E100000928010024
:1030C000303132333435363738396162636465669E
:1030D0000000000030313233343536373839414260
:1030E000434445460000000000F058F90544761CB2
:1030F000307800287FF4ECAD19B02846BDE8F08F99
:10310000620700D4062709F1070222F0070CFCE849
:103110000223E14603F000485FEA080C02D00FF2F8
:10312000702C0DE05FEA045C02D50FF2682C07E01A
:103130005FEAC47C02D00FF2602C01E0AFF2700CA9
:103140004FF0FF3823F00043CDF850C065280CD075
:1031500006DC452809D046281DD047283DD13DE052
:10316000662818D067287ED138E00021112F01DBB6
:10317000112000E0781CCDE9000106A90EA8FFF798
:10318000DDFCDDE90F010E9A03910021009207F1A9
:10319000010A04914DE04FF000400097CDE9011085
:1031A00006A90EA8FFF7CAFCDDE90F0203920E9BE9
:1031B00011990022DDF80CA00093049211B9791C3A
:1031C00000EB010AB7EB0A0004D4C0F1FF3007F1AD
:1031D000010A0490AAEB0700019044E0012F00DAF5
:1031E00001270021112F01DD112000E03846CDE933
:1031F000000106A90EA8FFF7A1FCDDE90F010E9A58
:103200000391002104910092BA4621070CD403993E
:10321000514500DA8A46BAF1010F05DD009AAAF19C
:103220000101515C302908D0B84202DA10F1040FD4
:1032300006DA0121CDE9011015E0AAF10101E9E763
:10324000002805DC049901440491AAEB000102E086
:10325000411C514500DD8A460499401A401C0190EA
:103260004FF000400290200704D40198504501DB44
:10327000CDF8048000208DF84F0002980DF14F0723
:10328000B0F1004F25D02B200E9002984FF002088D
:1032900000280CDA404202902D200E9007E00A210F
:1032A0000298FDF70BFA3031029007F8011DB8F1D2
:1032B0000001A8F10108F2DC02980028EFD1791E84
:1032C0000E980870307800F0200040F0450007F8B4
:1032D000020D12A8C01B00F107081498007800B175
:1032E000012000EB0A01019801EBE07105984144CF
:1032F000401A401E0590E00306D45B462146179A0B
:10330000059800F05DF805441498007818B15A4605
:10331000179990476D1CE00324D55B462146179A08
:10332000059800F04DF805441CE00498002807DBE0
:10333000DDE90301884203DD0098405C179901E054
:10334000179930205A469047049805F10105401C12
:1033500004900198401E019004D12E205A461799DE
:1033600090476D1CBAF10001AAF1010ADDDC05E00D
:1033700017F8010B5A46179990476D1CB8F10001D8
:10338000A8F10108F4DC5B462146179A0598ABE6E4
:103390002D0000002B000000200000002DE9F0416E
:1033A000044600251E461746880404D405E0394625
:1033B0002020B0476D1C641EF9D52846BDE8F08179
:1033C0002DE9F041044600251E469046C80301D56C
:1033D000302700E02027880404D505E04146384620
:1033E000B0476D1C641EF9D52846BDE8F081000089
:1033F0000EB5002425464FF4FA784FF47A7900BFD1
:1034000000F064FF029000F049F8404600F010FE22
:1034100000F034F810B1D0E9004502E00BA0FFF74E
:10342000F1FA2846FDF71BF906460F462046FDF740
:1034300016F902460B460CA0CDE90067FFF7E2FA49
:10344000494602A800F008FFDAE700006661696CEF
:10345000656420746F20676574206E6577206461F1
:1034600074613A200D0A00006164635F64617461F5
:103470003A2025662C2025660D0A00000348407876
:10348000002801D001480C30704700008C0000205B
:103490000148FDF75DBB0000A800002010B5022226
:1034A00004490548FDF722FE02490020091F487023
:1034B00010BD000090000020A800002010B51149A8
:1034C000FCF7F6FEFDF7CBF800F0ECF800220E4B0F
:1034D000FDF751F84FF060420C4BFCF733FF02460A
:1034E0000B4600200A49FDF746F84FF0C042094B51
:1034F000FCF7C9FF0022084BFCF724FFBDE8104091
:10350000FDF7C0B80060EA4600DCAE40E1796B3FF1
:103510000000F03F661271400000E03F13B5FF234A
:10352000012269460248FEF7B3FF00981CBD000067
:10353000640100201CB50D490120CDE900010023E4
:1035400080220BA10D4800F059FE10B90CA0FFF726
:1035500059FA00F0D3FD00F0ABFE022804D0BDE81C
:103560001C4011A0FFF74EBA1CBD00007C000020DB
:1035700073746172745F7461736B0000153E0008B0
:103580007461736B202273746172745F7461736B06
:103590002220637265617465642064656665617488
:1035A0002021200D0A0000005363686564756C6576
:1035B00072206E6F742072756E6E696E67210D0ACF
:1035C00000000000014840787047000078000020AB
:1035D0000149022048707047780000204FF4FA74C7
:1035E000FFF7F0FF28B1FFF7EDFF012801D0FFF74B
:1035F000E9FF204600F01CFDF2E700000121014830
:10360000FEF771B8000C01400148007870470000D7
:103610007A00002010B500F007F802490020087079
:1036200010BD00007A000020012211460148FEF77B
:1036300062B80000000C0140002201210148FEF7A1
:103640005AB80000000C014008B54FF4167400BFD2
:1036500000F03CFE0090FFF7D7FF30B1012807D003
:10366000022808D0032818D112E0FFF7DDFF14E08C
:10367000FFF7E2FF11E0FFF7C1FFC82000F0D8FC20
:10368000FFF7BCFFC82000F0D3FCFFF7B7FF04E052
:10369000FFF7B4FF204600F0CBFC2146684600F05F
:1036A000DBFDD5E72DE9F04DC84A002490B09142EA
:1036B00005DA21F00043934201D805D120B110B0C2
:1036C000BDE8F04DFFF71CBAB1F5801F1BDA53EAD5
:1036D000000209D0002911DA0120FFF729FA10B001
:1036E000BDE8F04DFFF70FBA0220FFF721FAFFF710
:1036F000FFF910B081F00041BDE8F08D6FF03504A6
:103700003622FDF7D7F804EB2152C1F31308B04974
:10371000A2F2FF33414401F4801282F07F6103EB97
:10372000225281F04051009241EA08010022A94B47
:10373000FCF7A9FE044608F10200A74EC0F31300EF
:103740000D467E44032867D2D6E900232046FDF7C4
:10375000F1F81ED10098002802BFD6E9000110B090
:10376000BDE8F08DFDF7BDF807460C469B4A9C4B23
:10377000FCF78FFE06460D469A4A9B4B384621467B
:10378000FCF787FE10B032462B46BDE8F04DFCF743
:10379000D9BD4FF05532954B20462946FCF779FEAE
:1037A0000022934BFCF772FE06460F4622462B463C
:1037B00010461946FCF76DFE32463B46FCF769FEA3
:1037C000064600980F46F0B1FDF78BF880468A4612
:1037D000824A834BFCF75DFE32463B46FCF756FEC1
:1037E00022462B46FCF74FFE05460C467D4A7E4B93
:1037F00040465146FCF74DFE10B02A462346BDE830
:10380000F04DFCF740BE0B4610B03246204629462C
:10381000BDE8F04DFCF737BE00224FF08043204654
:10382000FCF790FD02460B4620462946FCF7A3FE16
:1038300006460F460098FDF754F8CDE904013246DC
:103840003B4610463946FCF724FE0C9069480C9A1A
:103850004044019009910B461046FCF71AFE82463F
:10386000024665488B46C8F151080B4608F5D72833
:1038700003217844FFF7E6F852465B46FCF709FE61
:103880000A905E480D9152465B4604217844FFF74A
:10389000D9F8099B0C9AFCF7FCFD844601980D9B16
:1038A00040EA080860460A9AFCF74CFD83460891F6
:1038B000B8F1000F4EDD4FF0FF3220462946FCF7ED
:1038C000F9FF22462B46FCF7E4FD804600988A4625
:1038D00060B3DDE90401414A414BFCF7DAFD09918F
:1038E00000905A4640465146089BFCF72BFD324655
:1038F0003B46FCF7CEFD099B009AFCF723FD4246B0
:103900005346FCF7C3FD22462B46FCF7BCFD04469C
:103910000D46DDE90401334A334BFCF7BAFD10B024
:1039200022462B46BDE8F04DFCF7ADBD5A46404659
:10393000089BFCF707FD32463B46FCF7AAFD4246D2
:103940005346FCF7A3FD10B022462B46BDE8F04DD0
:10395000FCF79CBD009840B3DDE904011F4A204BF1
:10396000FCF797FD80468A465A4620462946089B22
:10397000FCF789FD32463B46FCF78BFD4246534639
:10398000FCF781FD22462B46FCF77DFD04460D46E3
:10399000DDE90401134A144BFCF77BFD10B022460D
:1039A0002B46BDE8F04DFCF76EBD0B465A4620464F
:1039B0002946FCF768FD32463B46FCF76AFD10B02D
:1039C00022462B46BDE8F04DFCF760BD0000F07FBD
:1039D000645F09000000F03F420E0000763C79353C
:1039E000EF39EA3D0000E0FE422EE63F5555D53F57
:1039F0000000E03F86EBF9FFDA0C0000D80C000075
:103A0000FDF78CFEFEF786FEFEF7DCFDFEF7C4FD3B
:103A1000FEF790FDFEF722FEFEF754FE00F074FA6A
:103A200002A0FEF7EFFFFFF785FDFEE76672656512
:103A300072746F735F73746172742E2E2E2E0A006F
:103A40002DE9F0411E4C0F460546E6682068001D32
:103A500000F063FA38B9206890F82C1001208840F3
:103A6000216981432161681C15D1A7B115492268DC
:103A70004868906023688268DA6022688368121D53
:103A80005A602268121D8260206841610868401CEB
:103A90000860BDE8F08120683544B5424560216882
:103AA00005D2E06BBDE8F041091D00F057BAA06BEC
:103AB000091D00F053FAA06A8542EAD2A562E8E740
:103AC00018000020A80200202DE9F041054600F072
:103AD00069FA364CA068401CA0602068344F10B1D1
:103AE000606940B32DE02560A068012829D1002637
:103AF00006EB860007EB800000F022FA761C052E0C
:103B0000F6D32B48643000F01BFA2948783000F0D7
:103B100017FA27488C3000F013FA2548A03000F03F
:103B20000FFA2348B43000F00BFA21486430A06348
:103B30001430E06305E02068E96AC06A884200D872
:103B40002560606A0121401C6062E86A2269814048
:103B50001143216100EB800007EB80004068A86002
:103B60008168E9608268291D51608160E86A00EB24
:103B7000800007EB8001696157F82010491C47F865
:103B8000201000F01DFA606900280CD02068E96A56
:103B9000C06A884207D207494FF080500860BFF3DF
:103BA0004F8FBFF36F8FBDE8F08100001800002039
:103BB000F401002004ED00E010B50446006B00F0B5
:103BC00009FA2046BDE8104000F004BA0E484FF450
:103BD0008841420706D0C01D0B4920F00700411A5A
:103BE000C1F58841094A00230144C2E900030839AC
:103BF000143A21F0070111604B600B600B1AC0E909
:103C00000013936053607047BC02002070000020D6
:103C1000144E154CA6F1A0074FF08058DFF84C90D9
:103C200012E000BF00F0BEF9F068C568281D00F082
:103C300074F9A068401EA0606068401E606000F0DB
:103C4000BFF92846FFF7B8FF60680028EAD1386856
:103C50000128F9D9C9F80080BFF34F8FBFF36F8FE8
:103C6000F2E70000940200201800002004ED00E0BC
:103C70002DE9F0479946DDE9096480466FF00303BA
:103C8000206B03EB8202089D104420F0070761B10E
:103C9000002023180A5C83F834200A5C12B1401C0F
:103CA0001028F6D3002084F84300052D00D3042506
:103CB000201DE56200F04FF904F1180000F04BF907
:103CC0002461C5F105006462A0614A464146384658
:103CD00000F08EF82060002E00D03460BDE8F08740
:103CE00030B5114900E011460A688242FBD34B68A7
:103CF0005C18844203D14068184448600846436811
:103D00001C18944209D1084C143C2468A24209D0E2
:103D100052681A4442600A6812680260814200D008
:103D2000086030BD0460F9E7700000200548816B31
:103D3000096821B1816BC9680968816270474FF0D9
:103D4000FF31FAE718000020502080F31188BFF3FC
:103D50004F8FBFF36F8FFEE770B50446002600F06B
:103D6000F5F9224D286808B9FFF730FFCCB304F00D
:103D70000700C0F11000C1438C4232D8211800293D
:103D80002FDD686881422CD8184814300246146828
:103D900001E02046144662688A4202D22268002A64
:103DA000F7D12A6894421CD00668226802606068D5
:103DB0000836421A102A04D9601842606160FFF781
:103DC0008FFF61686868401A6860AA68904200D2F4
:103DD000A86041F00040606000202060E868401C5E
:103DE000E86000F00BFB304670BD00005C00002076
:103DF00010B5031F4FF080741C601B1F21F00101E0
:103E00001960191F024B0B60143940380A6010BD4D
:103E1000493D00081CB500F0C5F818480224CDE95A
:103E200000400023802216A1174800F0E7F910B9DE
:103E300016A0FEF7E7FD11480023001DCDE9004064
:103E400080221BA11C4800F0D9F910B91BA0FEF775
:103E5000D9FD0A4800230830CDE90040802220A186
:103E6000204800F0CBF910B91FA0FEF7CBFD0020D1
:103E700000F0F6F8BDE81C4000F0A2B88000002079
:103E80006C656463746C0000493600087461736B80
:103E900020226C656463746C2220637265617465B2
:103EA00064206465666561742021200D0A000000AD
:103EB0006B657963746C0000DD3500087461736BA9
:103EC00020226B657963746C22206372656174656E
:103ED00064206465666561742021200D0A0000007D
:103EE00061646300F13300087461736B20226164C4
:103EF0006322206372656174656420646566656130
:103F0000742021200D0A000010B5FFF783FBFFF796
:103F10005FFBBDE81040FFF7BBBAD0E90132016991
:103F20009A60D0E901235A604A68824201D18268CE
:103F30004A60002202610868401E086008687047F5
:103F400000F108014FF0FF32C0E90112C1600161C8
:103F500000210160704700210161704730B50B6896
:103F60005A1C02D000F1080202E0026904E0224675
:103F7000546825689D42FAD953684B6099608A60FD
:103F8000516008610168491C016030BD42684A60A7
:103F900093688B6093685960916008610168491C5F
:103FA00001607047502080F31188BFF34F8FBFF33B
:103FB0006F8F02480168491C01607047580000205B
:103FC00003490868401E086001D180F311887047DA
:103FD0005800002070B500281BD0A0F108046068CC
:103FE000002816DA2168002913D120F00040606013
:103FF00000F0ACF8074D60686968084468602046C6
:10400000FFF76EFE2869401C2861BDE8704000F093
:10401000F5B970BD5C0000204FF0E0200021016187
:104020008161024941610721016170473F19010027
:1040300010B5020009D000F089F800211046FFF702
:10404000FFFC00F0DBF9002807D104494FF0805055
:104050000860BFF34F8FBFF36F8F10BD04ED00E01A
:1040600070B50546FFF79EFF214C05B92568281D50
:10407000FFF753FF58B9E86A1E4A00EB800152F877
:10408000211021B901218140206988432061A86A5B
:1040900018B105F11800FFF740FF606A401C60622C
:1040A0002068854208D11348291DA030FFF76EFF14
:1040B0006068401C606004E0A068401EA060FFF7DC
:1040C00035FEFFF77DFF2068854202D02846FFF7C6
:1040D00073FD606900280AD02068854207D106492F
:1040E0004FF080500860BFF34F8FBFF36F8F70BDEC
:1040F00018000020F401002004ED00E07CB50F481A
:104100000025CDE900502B4680220DA10E4800F07D
:1041100075F80A4C2C3C01280ED1502080F31188F0
:10412000BFF34F8FBFF36F8F4FF0FF30A0620120BE
:104130006061E56000F034F8206B7CBD4400002035
:1041400049444C4500000000113C00080248416B06
:10415000491C416370470000180000200E48416B65
:1041600011B10121C16170470021C16101690B4A90
:10417000B1FA81F1C1F11F0101EB810102EB810173
:1041800001F108034A6852684A609A4201D15268B4
:104190004A60D1680160704718000020F4010020D7
:1041A000094810B5016841F470010160016841F0EF
:1041B00070410160FFF730FF044900200860FBF701
:1041C000B1FF002010BD000020ED00E058000020ED
:1041D00010B5502080F31188BFF34F8FBFF36F8F5E
:1041E00000F07AF818B104494FF0805008600020C0
:1041F00080F3118810BD000004ED00E02DE9FF5FA1
:104200008346DDE90E87994616468A469000FFF7F9
:10421000A3FD05001DD04C20FFF79EFD040015D026
:104220004C21FBF7E2FF25630021CDE90241CDE9F6
:1042300000874B46324651465846FFF719FD204647
:10424000FFF742FC012004B0BDE8F09F2846FFF7CD
:10425000C1FE4FF0FF30F6E770B50E46054600246C
:10426000FFF774FF1048C2682B689919934204D96C
:104270008B420BD9914202D808E08B42FAD9881AB6
:10428000296001240021FFF7DBFB00E0296000F03A
:10429000B5F838B905494FF080500860BFF34F8F2B
:1042A000BFF36F8F204670BD1800002004ED00E0C2
:1042B0000548416919B1406B18B1002070470120D1
:1042C0007047022070470000180000200148C068B5
:1042D00070470000180000202DE9F041454C0026F1
:1042E000606B28B1A069401CA0613046BDE8F08138
:1042F000E5686D1CE56008D1A06BE16BA163E0632C
:10430000206A401C2062FFF711FDA16A3A488D42E5
:104310000FD34FF0000EA16B096839B1A16BC968CA
:10432000C9684A68954212D2A26202E04FF0FF319A
:10433000A1622168C96A01EB810150F821000128BE
:1043400000D90126E0690028CFD00126CDE7D1E9C8
:1043500002724B69BA60D1E902277A605F680A1D70
:10436000974201D1CF685F60C1F814E01F687F1EDB
:104370001F60D1F828C0BCF1000F15D0D1E9073774
:104380009F60D1E907377B60DCF8047001F1180306
:104390009F4202D10B6ACCF80430C1F828E0DCF867
:1043A00000305B1ECCF80030CB6A0127D4F810C077
:1043B0009F4047EA0C07276103EB830300EB83036D
:1043C0005B688B609F68CF609F687A609A60CA6AFA
:1043D00002EB820200EB82034B6150F822305B1C3F
:1043E00040F82230C96A2268D26A914293D90126E4
:1043F00091E7000018000020F40100202DE9F041B1
:1044000000242746FFF7CEFD3F4D686B401E6863D2
:10441000686B002872D1A8683C4B00264FF0010859
:10442000F0BB6BE0D868C468D4E90721A06A91604A
:10443000D4E907125160426804F118018A4201D19F
:10444000216A4160A6620168491E0160D4E9022127
:1044500060699160D4E9021251604268211D8A426C
:1044600001D1E268426066610268521E0260E26A3F
:10447000D5F810C008FA02F040EA0C00286102EBFF
:104480008200224A8C3A02EB80004068A060D0F89B
:1044900008C0C4F80CC0D0F808C0CCF8041000E084
:1044A00012E08160E06A00EB800002EB8001616154
:1044B00052F82010491C42F82010E06A2968C96AA5
:1044C000884201D3C5F81C8018680028AAD10CB115
:1044D000FFF72CFCAC693CB1FFF7FEFE08B1C5F854
:1044E0001C80641EF8D1AE61E86938B10849012723
:1044F00038070860BFF34F8FBFF36F8FFFF760FD82
:104500003846BDE8F081000018000020800200203D
:1045100004ED00E0010202030405060708090A0B86
:104520000C0D0E0F10100102020304050607080906
:104530000A0B0C0D0E0F1010000000000000000010
:104540000102030406070809000000000102030439
:1045500004FA97999999D93FAF788E1DC571CC3FD0
:104560009FC678D0099AC33F935555555555E53F99
:10457000599322942449D23FDE03CB966446C73F29
:1045800044523EDF12F1C23F000000000000000074
:10459000B045000800000020A8000000122B000811
:1045A00058460008A8000020184A0000222B0008E6
:1045B00000000000000000000100000010000000EA
:1045C0000000000000127A0000000000000000005F
:1045D00000000000000000000000000000000000DB
:1045E00000000000000000000000000000000000CB
:1045F00000000000000000000400000000000000B7
:104600000000000000000000AAAAAAAA0000000002
:10461000000000000000000000000000000000009A
:10462000000000000000000000000000000000008A
:10463000000000000000000000000000000000007A
:10464000000000000000000000000000000000006A
:08465000000000000000000062
:04000005080000ED02
:00000001FF
